{
  "_format": "hh-sol-artifact-1",
  "contractName": "RiftVaultMarketplace",
  "sourceName": "src/RiftVaultMarketplace.sol",
  "abi": [
    {
      "inputs": [
        {
          "internalType": "address",
          "name": "_feeRecipient",
          "type": "address"
        }
      ],
      "stateMutability": "nonpayable",
      "type": "constructor"
    },
    {
      "anonymous": false,
      "inputs": [
        {
          "indexed": true,
          "internalType": "uint256",
          "name": "listingId",
          "type": "uint256"
        }
      ],
      "name": "Cancelled",
      "type": "event"
    },
    {
      "anonymous": false,
      "inputs": [
        {
          "indexed": true,
          "internalType": "uint256",
          "name": "listingId",
          "type": "uint256"
        },
        {
          "indexed": true,
          "internalType": "address",
          "name": "seller",
          "type": "address"
        },
        {
          "indexed": true,
          "internalType": "address",
          "name": "nftContract",
          "type": "address"
        },
        {
          "indexed": false,
          "internalType": "uint256",
          "name": "tokenId",
          "type": "uint256"
        },
        {
          "indexed": false,
          "internalType": "uint256",
          "name": "priceWei",
          "type": "uint256"
        }
      ],
      "name": "Listed",
      "type": "event"
    },
    {
      "anonymous": false,
      "inputs": [
        {
          "indexed": true,
          "internalType": "uint256",
          "name": "listingId",
          "type": "uint256"
        },
        {
          "indexed": true,
          "internalType": "address",
          "name": "buyer",
          "type": "address"
        },
        {
          "indexed": false,
          "internalType": "uint256",
          "name": "priceWei",
          "type": "uint256"
        }
      ],
      "name": "Sold",
      "type": "event"
    },
    {
      "inputs": [],
      "name": "FEE_BPS",
      "outputs": [
        {
          "internalType": "uint256",
          "name": "",
          "type": "uint256"
        }
      ],
      "stateMutability": "view",
      "type": "function"
    },
    {
      "inputs": [
        {
          "internalType": "uint256",
          "name": "listingId",
          "type": "uint256"
        }
      ],
      "name": "buy",
      "outputs": [],
      "stateMutability": "payable",
      "type": "function"
    },
    {
      "inputs": [
        {
          "internalType": "uint256",
          "name": "listingId",
          "type": "uint256"
        }
      ],
      "name": "cancel",
      "outputs": [],
      "stateMutability": "nonpayable",
      "type": "function"
    },
    {
      "inputs": [],
      "name": "feeRecipient",
      "outputs": [
        {
          "internalType": "address",
          "name": "",
          "type": "address"
        }
      ],
      "stateMutability": "view",
      "type": "function"
    },
    {
      "inputs": [
        {
          "internalType": "address",
          "name": "nftContract",
          "type": "address"
        },
        {
          "internalType": "uint256",
          "name": "tokenId",
          "type": "uint256"
        },
        {
          "internalType": "uint256",
          "name": "priceWei",
          "type": "uint256"
        }
      ],
      "name": "list",
      "outputs": [
        {
          "internalType": "uint256",
          "name": "listingId",
          "type": "uint256"
        }
      ],
      "stateMutability": "nonpayable",
      "type": "function"
    },
    {
      "inputs": [
        {
          "internalType": "uint256",
          "name": "",
          "type": "uint256"
        }
      ],
      "name": "listings",
      "outputs": [
        {
          "internalType": "address",
          "name": "seller",
          "type": "address"
        },
        {
          "internalType": "address",
          "name": "nftContract",
          "type": "address"
        },
        {
          "internalType": "uint256",
          "name": "tokenId",
          "type": "uint256"
        },
        {
          "internalType": "uint256",
          "name": "priceWei",
          "type": "uint256"
        },
        {
          "internalType": "bool",
          "name": "active",
          "type": "bool"
        }
      ],
      "stateMutability": "view",
      "type": "function"
    },
    {
      "inputs": [],
      "name": "nextListingId",
      "outputs": [
        {
          "internalType": "uint256",
          "name": "",
          "type": "uint256"
        }
      ],
      "stateMutability": "view",
      "type": "function"
    }
  ],
  "bytecode": "0x6080604052600160025534801561001557600080fd5b50604051610986380380610986833981016040819052610034916100b8565b60016000556001600160a01b0381166100935760405162461bcd60e51b815260206004820152601660248201527f66656520726563697069656e7420726571756972656400000000000000000000604482015260640160405180910390fd5b600180546001600160a01b0319166001600160a01b03929092169190911790556100e8565b6000602082840312156100ca57600080fd5b81516001600160a01b03811681146100e157600080fd5b9392505050565b61088f806100f76000396000f3fe6080604052600436106100705760003560e01c8063bf333f2c1161004e578063bf333f2c146100f8578063d96a094a1461010d578063dda342bb14610120578063de74e57b1461014057600080fd5b806340e58ee5146100755780634690484014610097578063aaccf1ec146100d4575b600080fd5b34801561008157600080fd5b5061009561009036600461077e565b6101cf565b005b3480156100a357600080fd5b506001546100b7906001600160a01b031681565b6040516001600160a01b0390911681526020015b60405180910390f35b3480156100e057600080fd5b506100ea60025481565b6040519081526020016100cb565b34801561010457600080fd5b506100ea60fa81565b61009561011b36600461077e565b610318565b34801561012c57600080fd5b506100ea61013b366004610797565b610586565b34801561014c57600080fd5b5061019a61015b36600461077e565b6003602081905260009182526040909120805460018201546002830154938301546004909301546001600160a01b039283169492909116929060ff1685565b604080516001600160a01b0396871681529590941660208601529284019190915260608301521515608082015260a0016100cb565b6000818152600360205260409020600481015460ff166102235760405162461bcd60e51b815260206004820152600a6024820152696e6f742061637469766560b01b60448201526064015b60405180910390fd5b80546001600160a01b031633146102695760405162461bcd60e51b815260206004820152600a6024820152693737ba1039b2b63632b960b11b604482015260640161021a565b6004818101805460ff191690556001820154825460028401546040516323b872dd60e01b815230948101949094526001600160a01b039182166024850152604484015216906323b872dd90606401600060405180830381600087803b1580156102d157600080fd5b505af11580156102e5573d6000803e3d6000fd5b50506040518492507fc41d93b8bfbf9fd7cf5bfe271fd649ab6a6fec0ea101c23b82a2a28eca2533a99150600090a25050565b610320610725565b6000818152600360205260409020600481015460ff1661036f5760405162461bcd60e51b815260206004820152600a6024820152696e6f742061637469766560b01b604482015260640161021a565b80600301543410156103ba5760405162461bcd60e51b81526020600482015260146024820152731a5b9cdd59999a58da595b9d081c185e5b595b9d60621b604482015260640161021a565b60048101805460ff191690556003810154600090612710906103de9060fa906107ee565b6103e8919061080b565b905060008183600301546103fc919061082d565b83546040519192506001600160a01b03169082156108fc029083906000818181858888f19350505050158015610436573d6000803e3d6000fd5b506001546040516001600160a01b039091169083156108fc029084906000818181858888f19350505050158015610471573d6000803e3d6000fd5b50600183015460028401546040516323b872dd60e01b815230600482015233602482015260448101919091526001600160a01b03909116906323b872dd90606401600060405180830381600087803b1580156104cc57600080fd5b505af11580156104e0573d6000803e3d6000fd5b5050505060008360030154346104f6919061082d565b9050801561052d57604051339082156108fc029083906000818181858888f1935050505015801561052b573d6000803e3d6000fd5b505b336001600160a01b0316857f66f5cd880edf48cdde6c966e5da0784fcc4c5e85572b8b3b62c4357798d447d7866003015460405161056d91815260200190565b60405180910390a3505050506105836001600055565b50565b60008082116105c85760405162461bcd60e51b815260206004820152600e60248201526d1c1c9a58d9481c995c5d5a5c995960921b604482015260640161021a565b6040516323b872dd60e01b8152336004820152306024820152604481018490526001600160a01b038516906323b872dd90606401600060405180830381600087803b15801561061657600080fd5b505af115801561062a573d6000803e3d6000fd5b50506002805492509050600061063f83610840565b909155506040805160a081018252338082526001600160a01b0388811660208085018281528587018b8152606087018b815260016080890181815260008c81526003968790528b902099518a549089166001600160a01b0319918216178b559451918a01805492909816919094161790955551600287015592519085015590516004909301805493151560ff199094169390931790925591519293509183907f723f73331eaee88eec7fc68ef60ab6ed15e4b90d0472b55eb92fa43910bab6dd906107169088908890918252602082015260400190565b60405180910390a49392505050565b6002600054036107775760405162461bcd60e51b815260206004820152601f60248201527f5265656e7472616e637947756172643a207265656e7472616e742063616c6c00604482015260640161021a565b6002600055565b60006020828403121561079057600080fd5b5035919050565b6000806000606084860312156107ac57600080fd5b83356001600160a01b03811681146107c357600080fd5b95602085013595506040909401359392505050565b634e487b7160e01b600052601160045260246000fd5b8082028115828204841417610805576108056107d8565b92915050565b60008261082857634e487b7160e01b600052601260045260246000fd5b500490565b81810381811115610805576108056107d8565b600060018201610852576108526107d8565b506001019056fea26469706673582212205cd5f719cee35e83d2efc56cb268278a1019acb4a3fe19e137b16a2e702c3e3764736f6c63430008140033",
  "linkReferences": {},
  "deployedLinkReferences": {}
}